:020000002629AF
:10000600710DF80DF90D7408F8027508031C750FCB
:10001600F902F00DF10D0F30FC00710DF80DF90D20
:100026007408701C1C28F8027508031C750FF90269
:100036002128F80775080318750FF907F00DF10D5B
:10004600FC0B102870182D287408F807750803187B
:08005600750FF9070000080016
:10005E00831203137408003A031D3E287508003AF4
:10006E00031D3E28FF30F0007F30F10097288312E9
:10007E000313FD01F901F80171087004031900342E
:10008E0071087506FA00FA1BFD09FB01F51F5428CD
:10009E00F409F509F40A0319F50AF11F5B28F009B2
:1000AE00F109F00A0319F10A71087504FA00FA1B36
:1000BE00702803207B188328FD1F0034F009F109F6
:1000CE00F00A0319F10AF809F909F80A0319F90AED
:1000DE000034F51F7F28F11B7B287108F90070088A
:1000EE00F800F101F0016328F101F001F00A00348B
:1000FE00F109F009FB0A6028F80A0319F90A7408D5
:10010E007802031D632875087902031D6328F9011F
:10011E00F801F00A0319F10AF11F63280000FF34F9
:02012E000800C7
:0E0130008312031321088A00200882000800B1
:10013E0098208A110A128000840AA00A0319A10AC3
:08014E00F003031D9F280800C7
:10015600013083120313A800051CCC28280886004A
:100166002808F000F101F00DF10D7010FF30F400D9
:10017600F5012F207808F0007908F1007008A80032
:100186000230FC004B30FD00FD0BC728FC0BC728D6
:0A019600AF2886010130F0000800D8
:1001A00083120313A901AA01A901AA01051C0529AB
:1001B00080302A06F00080307002031DE1281430E0
:1001C0002902031CF728280886002808F000F101FE
:1001D000F00DF10D7010FF30F400F5012F207808BC
:1001E000F0007908F1007008A800A901AA011430F4
:1001F000FC007930FD00FD0BFB28FC0BFB28000008
:100200000000A90A0319AA0AD6282808013A031DE2
:100210000C298030F00010292808F000F00CF013B1
:020220000800D4
:1002220083120313280886002808F000F101F00D5C
:10023200F10D7010FF30F400F5012F207808F00066
:0A0242007908F1007008A800080018
:10024C0083120313A201A301A401A5010130A6008E
:10025C00A70103308316850083128501831686015E
:10026C008312860183168E15073083129F00851129
:10027C000517851705184F29A40A0319A50A41303B
:10028C00FC00EE30FD00FD0B4929FC0B4929000058
:10029C00402980302506F00080307002031D58295B
:1002AC0001302402031C6A2980302506F0008030BE
:1002BC007002031D63290F30240203186A29A2015E
:1002CC00A3010130A700922980302506F000803070
:1002DC007002031D73290F302402031C8429803003
:1002EC002506F00080307002031D7E29193024028F
:1002FC00031884290130A200A3019229803025061D
:10030C00F00080307002031D8D2919302402031C6B
:10031C0092290130A300A2012708013A031DA2294A
:10032C008511051785172608A80011217008A6004D
:10033C00A701A401A501BD292208013A031DB12979
:10034C008515051385172608A800D0207008A6006F
:10035C00A401A501BD292308013A031DBD2985155A
:10036C0005178513AB207008A600A401A501402930
:02037C00BE2998
:02400E00182177
:00000001FF
